:100000000C942A000C9447000C9447000C94470071
:100010000C9447000C9447000C9447000C94470044
:100020000C9447000C9447000C9447000C94470034
:100030000C9447000C9447000C9447000C94470024
:100040000C9447000C9447000C9447000C94470014
:100050000C94470011241FBECFE5D8E0DEBFCDBF12
:1000600010E0A0E6B0E0E4E1FFE002C005900D92F0
:10007000AC3FB107D9F721E0ACEFB0E001C01D9271
:10008000A430B207E1F70E9476040C9488070C9420
:100090000000EF92FF920F931F93CF93DF9360E0E6
:1000A0008EE00E94C30460E08FE00E94C30480E001
:1000B0000E941D0443E650E060E080E00E94AE0331
:1000C0000E9442040E944504909303018093020120
:1000D0007C0100E010E020E030E040E050E065E02E
:1000E00080E00E94B80360E083EC90E00E94DC03B3
:1000F00040E067E080E00E94D40389E690E00E943F
:10010000ED0243E750E060E081E00E94AE038AE642
:1001100090E00E94ED028091020190910301899785
:1001200008F4BDCFDF91CF911F910F91FF90EF9019
:100130000895EF92FF920F931F93CF93DF938EE07A
:100140000E94610560E08FE00E94C30480E00E948D
:100150001D0443E650E060E080E00E94AE030E9490
:1001600042040E94450490930301809302017C01A4
:1001700000E010E020E030E040E050E065E080E0AA
:100180000E94B80360E083EC90E00E94DC0340E052
:1001900067E080E00E94D4030E94540461E08BEB8E
:1001A00090E00E94DC0341E068E080E00E94D4031C
:1001B00044E850E069E080E00E94AE030E945704EA
:1001C000282F30E03093010120930001E82EF12C1C
:1001D00020E030E040E050E06DE080E00E94B803B5
:1001E00045E26FE080E00E94D40349E850E060E01F
:1001F00081E00E94AE0380910201909103018897F3
:1002000038F08091000190910101C39708F497CFD5
:10021000DF91CF911F910F91FF90EF900895DF92A2
:10022000EF92FF920F931F93CF93DF938AE0D82E24
:100230000E94C30190E09093FF008093FE008D34F4
:100240009105E9F19C01205331092A30310590F4E0
:100250004091FC005091FD00D49E9001D59E300D40
:10026000112420533109820F931F9093FD00809336
:10027000FC0025C08334910529F41092FD001092F2
:10028000FC001DC0CD97D9F4209160003091610031
:100290008091FC009091FD002817390709F46BC08C
:1002A0004AE950E060E081E00E94AE032FEF80E772
:1002B00092E0215080409040E1F700C000008EE0C5
:1002C0000E9461058FE00E94610580E00E94F803B2
:1002D00043E650E060E080E00E94AE030E944204EA
:1002E0000E94450490930301809302017C0100E089
:1002F00010E020E030E040E050E065E080E00E9467
:10030000B80360E083EC90E00E94DC0340E067E02B
:1003100080E00E94D4030E94540461E08BEB90E0E3
:100320000E94DC0341E068E080E00E94D40344E8DE
:1003300050E069E080E00E94AE030E945704282F3D
:1003400030E03093010120930001E82EF12C20E0F1
:1003500030E040E050E06DE080E00E94B80345E20C
:100360006FE080E00E94D4034AEA50E060E081E060
:100370000E94AE035DCFDF91CF911F910F91FF904F
:10038000EF90DF900895DF92EF92FF920F931F930B
:10039000CF93DF9361E080E10E94C30461E081E1DB
:1003A0000E94C30461E082E10E94C30461E083E132
:1003B0000E94C3049BECE92E90E0F92EC0E1DDE43D
:1003C00060E08C2F0E94C30400E010E084E1D82E8E
:1003D000D00E8D2D0E944405811109C0F701E00F58
:1003E000F11FD0818D2D0E9444058823D9F30F5F22
:1003F0001F4F0430110551F761E08C2F0E94C30498
:10040000CF5F84E0E80EF11CC431D1F68D2FDF916F
:10041000CF911F910F91FF90EF90DF900895CF93B0
:10042000C82F60E088E00E94C3046C2F661F662717
:10043000661F87E00E94C304C6FB662760F986E05A
:100440000E94C304C5FB662760F985E00E94C304CF
:10045000C4FB662760F984E00E94C30461E089E080
:100460000E94C3048FEC97E00197F1F700C00000F1
:1004700060E089E00E94C3048FEC97E00197F1F7F8
:1004800000C00000C3FB662760F987E00E94C30438
:10049000C2FB662760F986E00E94C304C1FB6627A1
:1004A00060F985E00E94C3046C2F617084E00E94B3
:1004B000C30461E089E00E94C3048FEC97E00197D8
:1004C000F1F700C0000060E089E00E94C3048FECF7
:1004D00097E00197F1F700C00000CF910895CF9306
:1004E000C82F61E088E00E94C3046C2F661F662756
:1004F000661F87E00E94C304C6FB662760F986E09A
:100500000E94C304C5FB662760F985E00E94C3040E
:10051000C4FB662760F984E00E94C30461E089E0BF
:100520000E94C3048FEC97E00197F1F700C0000030
:1005300060E089E00E94C3048FEC97E00197F1F737
:1005400000C00000C3FB662760F987E00E94C30477
:10055000C2FB662760F986E00E94C304C1FB6627E0
:1005600060F985E00E94C3046C2F617084E00E94F2
:10057000C30461E089E00E94C3048FEC97E0019717
:10058000F1F700C0000060E089E00E94C3048FEC36
:1005900097E00197F1F700C00000CF9108952FE791
:1005A00088E391E0215080409040E1F700C00000D6
:1005B00082E00E940F0288E20E940F028CE00E94FB
:1005C0000F0281E00E940F028FEC97E00197F1F794
:1005D00000C0000086E00C940F020F931F93CF938E
:1005E0008C01C0E0F801EC0FF11D8081882321F01F
:1005F0000E946F02CF5FF6CFCF911F910F910895A8
:100600002F923F924F925F926F927F928F929F9222
:10061000AF92BF92CF92DF92EF92FF920F931F9310
:10062000CF93DF93CDB7DEB767970FB6F894DEBFF1
:100630000FBECDBF29013A014B011C01A0E00E9471
:100640007C07D9F480E367960FB6F894DEBF0FBE3F
:10065000CDBFDF91CF911F910F91FF90EF90DF9071
:10066000CF90BF90AF909F908F907F906F905F9052
:100670004F903F902F900C946F02A0E00E947C0757
:100680004CF40E94350729013A014B011C018DE20F
:100690000E946F021D8A81E090E08C0F9D1FED8902
:1006A0008E0F911D9F8B8E8B8AE0A82EB12CC12CB2
:1006B000D12CE12CF12C00E010E09201A301B40157
:1006C000C1010E94A506205DEE89FF892083920169
:1006D000A301B401C1010E94A70629013A014B01FF
:1006E0001C01ED89EF5FA0E00E947C0711F0ED8B0B
:1006F000D2CF9D8897FC0DC0E1E0F0E0EC0FFD1F2C
:10070000E90DF11D97FCFA9580810E946F029A9481
:10071000F1CF67960FB6F894DEBF0FBECDBFDF9165
:10072000CF911F910F91FF90EF90DF90CF90BF90EE
:10073000AF909F908F907F906F905F904F903F9081
:100740002F900895811103C0862F806804C08130E6
:1007500021F4862F806C0C940F020895CF93DF93C1
:10076000EA010E94A203CE01DF91CF910C94ED0229
:10077000CF92DF92EF92FF920F931F93CF93DF936D
:100780006901D42FC52F0E94A2039701A801B601C9
:100790008D2F9C2FDF91CF911F910F91FF90EF90A4
:1007A000DF90CF900C940003CF93C42F0E94A2033C
:1007B0008C2FCF910C946F020F931F93CF93DF93E5
:1007C0008C01862F880F880F880F805C0E940F0293
:1007D000E801085F1F4F89910E946F02C017D1077F
:1007E000D1F780E8DF91CF911F910F910C940F0208
:1007F000813069F028F0823089F08330B1F00895BB
:1008000061E08AE00E94C30460E08BE014C061E014
:1008100082E10E94C30460E083E10DC061E084E1F5
:100820000E94C30460E085E106C061E086E10E94A9
:10083000C30460E087E10C94C304813069F028F0C0
:10084000823089F08330B1F0089560E08AE00E9440
:10085000C30460E08BE014C060E082E10E94C30446
:1008600060E083E10DC060E084E10E94C30460E0C9
:1008700085E106C060E086E10E94C30460E087E194
:100880000C94C30480E00C94AD040E94BB049C0152
:10089000A8E8B3E10E94960620E038E240E050E08C
:1008A0000E947406C901089581E00C94AD040E9471
:1008B000BB049C01A8EEB3E00E949606685D764DED
:1008C0008109910929E933E040E050E00E94740673
:1008D0002A563F4FA4E6B0E00E9496062EE734E089
:1008E00040E050E00E947406822F08950E94960511
:1008F0000E94CF0266E081E00E9497040E944900B6
:100900008091020190910301899740F0809100014C
:1009100090910101C29710F40E949900809100010A
:1009200090910101C39750F30E940F01E7CF8130EE
:1009300041F020F0833039F43F9A04C03F983E984C
:1009400002C03F983E9A86B1887F86B986B16770AB
:10095000682B66B93D98379A08959091620091305E
:1009600049F497B1907E97B997B1892B87B9369A98
:100970001092620008953699FECF81E08093620064
:1009800084B195B10895982F969596959695877010
:100990006130C1F5913091F028F09230D9F0933068
:1009A00029F108954BB321E030E0B90102C0660F90
:1009B000771F8A95E2F7CB01842B3AC048B321E038
:1009C00030E0B90102C0660F771F8A95E2F7CB01CC
:1009D000842B3CC045B321E030E0B90102C0660F72
:1009E000771F8A95E2F7CB01842B3EC042B321E00A
:1009F00030E0B90102C0660F771F8A95E2F7CB019C
:100A0000842B40C061113FC09130A1F028F092309A
:100A1000F9F0933059F108954BB321E030E0B9017A
:100A200002C0660F771F8A95E2F7CB018095842379
:100A30008BBB089548B321E030E0B90102C0660FD6
:100A4000771F8A95E2F7CB018095842388BB0895B0
:100A500045B321E030E0B90102C0660F771F8A95E7
:100A6000E2F7CB018095842385BB089542B321E052
:100A700030E0B90102C0660F771F8A95E2F7CB011B
:100A80008095842382BB0895282F277086958695AC
:100A90008695813049F030F0823041F0833079F42E
:100AA00080B305C089B303C086B301C083B390E0AF
:100AB00002C0959587952A95E2F78170089580E0A8
:100AC0000895282F2770869586958695813081F028
:100AD00028F08230B9F08330F9F008953BB381E01B
:100AE00090E001C0880F2A95EAF783278BBB089511
:100AF00038B381E090E001C0880F2A95EAF7832798
:100B000088BB089535B381E090E001C0880F2A9535
:100B1000EAF7832785BB089532B381E090E001C0F6
:100B2000880F2A95EAF7832782BB0895EBEDF0E062
:100B300040E081E090E05191342F3695369536951E
:100B4000242F2770513009F443C020F0523009F4AB
:100B500082C0C5C0323001F1333061F1313071F003
:100B60005AB3BC0102C0660F771F2A95E2F79B01BA
:100B7000352F322B3ABB3BB320953DC057B3BC0158
:100B800002C0660F771F2A95E2F79B01352F322BA3
:100B900037BB38B320953EC054B3BC0102C0660FCA
:100BA000771F2A95E2F79B01352F322B34BB35B3E3
:100BB00020953FC051B3BC0102C0660F771F2A9534
:100BC000E2F79B01352F322B31BB32B3209541C068
:100BD000323011F1333081F1313079F05AB3BC0148
:100BE00002C0660F771F2A95E2F79B012095352FEB
:100BF00032233ABB3BB3232342C057B3BC0102C0EC
:100C0000660F771F2A95E2F79B012095352F322337
:100C100037BB38B3232343C054B3BC0102C0660FB3
:100C2000771F2A95E2F79B012095352F322334BB9D
:100C300035B3232325BB53C051B3BC0102C0660F9B
:100C4000771F2A95E2F79B012095352F322331BB80
:100C500032B3232343C0323021F1333089F13130B4
:100C600081F05AB3BC0102C0660F771F2A95E2F7E4
:100C70009B01362F309535233ABB3BB3232B2BBB3F
:100C80002EC057B3BC0102C0660F771F2A95E2F74A
:100C90009B01362F3095352337BB38B3232B28BB28
:100CA0001EC054B3BC0102C0660F771F2A95E2F73D
:100CB0009B01362F3095352334BB35B3232BBACF68
:100CC00051B3BC0102C0660F771F2A95E2F79B0162
:100CD000362F3095352331BB32B3232B22BB4F5FE8
:100CE000403209F028CF0895A1E21A2EAA1BBB1B9F
:100CF000FD010DC0AA1FBB1FEE1FFF1FA217B307E8
:100D0000E407F50720F0A21BB30BE40BF50B661FFD
:100D1000771F881F991F1A9469F7609570958095C1
:100D200090959B01AC01BD01CF010895A29FB00138
:100D3000B39FC001A39F700D811D1124911DB29F0F
:100D4000700D811D1124911D0895689401C0E894CF
:100D5000F92FF12B12F00C94D906A0E0B0E0E3EBF0
:100D6000F6E00C944B07092E059422F40E943507F7
:100D7000112392F4F0E80F26FFEFE094F094009531
:100D80001095B094C094D094A194BF0ACF0ADF0A02
:100D9000EF0AFF0A0F0B1F0B0E94E40607FC0E94DC
:100DA0003507CDB7DEB7ECE00C946707689401C057
:100DB000E8948F929F92CF93DF930E94E406DF9195
:100DC000CF919F908F90089588249924F401E40195
:100DD000B0E49F93AA279A158B049C04ED05FE05A9
:100DE000CF05D007A10798F4AD2FDC2FCF2FFE2F12
:100DF000E92D982C892E982F872F762F652F542F29
:100E0000432F322F2227B85031F7BF9127C01B2E16
:100E1000BF91BB27220F331F441F551F661F771F2B
:100E2000881F991F881C991CEE1FFF1FCC1FDD1FF8
:100E3000AA1FBB1F8A149B04EC05FD05CE05DF0528
:100E4000A007B10748F08A189B08EC09FD09CE09F4
:100E5000DF09A00BB10B21601A94E1F62EF4940186
:100E6000AF01BE01CD01000C08956095709580958D
:100E7000909530954095509521953F4F4F4F5F4F3E
:100E80006F4F7F4F8F4F9F4F08952F923F924F92FA
:100E90005F926F927F928F929F92AF92BF92CF920A
:100EA000DF92EF92FF920F931F93CF93DF93CDB713
:100EB000DEB7CA1BDB0B0FB6F894DEBF0FBECDBF8B
:100EC00009942A88398848885F846E847D848C845C
:100ED0009B84AA84B984C884DF80EE80FD800C8165
:100EE0001B81AA81B981CE0FD11D0FB6F894DEBF48
:100EF0000FBECDBFED0108950024A7FD00942A1771
:100F00003005400550056005700580059005089581
:040F1000F894FFCF83
:100F140039300154656D703A0020202020202020B3
:100F240020200020202020202046696E65202020DB
:100F340020202000534D4B3A002020202020204820
:100F440065617420202020202000202057726F6EBD
:100F54006750617373776F72640020202020202013
:100F64004669726520202020202000FFFFFFFFFF3C
:100F7400FFFFFF0E0A0E00000000003738392F343F
:100F840035362A3132332D43303D2B010101010026
:100F9400000000000000000000000000000000024B
:0C0FA4000202020000000000000000003B
:00000001FF
