:100000000C942A000C942B0E0C94540E0C947D0E20
:100010000C94EE0F0C94C50F0C949C0F0C944A0F8B
:100020000C94730F0C94210F0C94F80E0C94CF0EBB
:100030000C94A60E0C9469100C9417100C9440109C
:100040000C94860C0C9447000C9447000C944700C9
:100050000C94470011241FBECFE5D8E0DEBFCDBF12
:1000600011E0A0E6B0E0E6E5F4E202C005900D92F2
:10007000A638B107D9F721E0A6E8B1E001C01D928A
:10008000A73AB207E1F70E940B0C0C9429120C94CA
:1000900000009F92AF92BF92CF92DF92EF92FF92B9
:1000A0000F931F93CF93DF9320ED260F2A3058F53F
:1000B000962EEC018AE0A82EB12CC12CD12CE12C7B
:1000C000F12C00E010E0288139814A815B816C814C
:1000D0007D818E819F810E94A110E92DF0E0F09733
:1000E0001F2F110F110B5F01C12ED12EE12EF12E0A
:1000F000012F0E940812288339834A835B836C8313
:100100007D838E839F83DF91CF911F910F91FF900D
:10011000EF90DF90CF90BF90AF909F900895AF92F7
:10012000BF92CF92DF92EF92FF920F931F93CF93E4
:10013000DF93FC01A62F80ED860F8A3008F5208121
:10014000318142815381648175818681978104E088
:100150000E94D111CA2FD0E0E0971D2F110F110B73
:100160005E01C12ED12EE12EF12E012F0E94081228
:10017000208331834283538364837583868397838B
:10018000A23411F180F4A13409F041C02081318101
:1001900042815381648175818681978104E00E9448
:1001A000D111AAE02AC0A534E1F0A63481F520815E
:1001B000318142815381648175818681978104E018
:1001C0000E94D111AFE019C0208131814281538159
:1001D000648175818681978104E00E94D111ABE032
:1001E0000CC0208131814281538164817581868177
:1001F000978104E00E94D111AEE00E941112208389
:100200003183428353836483758386839783DF912D
:10021000CF911F910F91FF90EF90DF90CF90BF9003
:10022000AF9008950F93FC0180ED860F8230F0F4BB
:100230002081318142815381613349F46481758128
:100240008681978101E00E94D111216007C06481FD
:1002500075818681978101E00E94D11120833183CD
:100260004283538364837583868397830F910895B4
:100270001F93CF93DF9300D0CDB7DEB71FEF0E945F
:100280000E098A8340E750E060E070E080E090E093
:100290000E94A50B4FE750E060E070E081E090E045
:1002A0000E94A50B8A818D3451F38A818053898302
:1002B0000E94380A4A8150E060E070E080E090E0FF
:1002C0000E94E70B8981813031F08981823019F0F9
:1002D0008981833059F48981813021F1898182308B
:1002E00019F18981833009F513E01FC00E94380A93
:1002F00041E950E060E070E080E090E00E94A50BF2
:100300004EE950E060E070E081E090E00E94A50BD3
:100310002FEF84E39CE0215080409040E1F700C043
:10032000000003C011E001C012E08FEF810F8330A5
:1003300008F0A5CF812F0F900F90DF91CF911F91E3
:100340000895CF93DF93C82F0E94380AC13019F463
:1003500048EA50E009C0C23019F449EB50E004C04B
:10036000C33081F44AEC50E060E070E080E090E05F
:100370000E94A50B4FE750E060E070E081E090E064
:100380000E94A50BDFEF0E940E09C82F8D34D9F310
:100390000E94380A8FEC8C0F833038F4C053C13080
:1003A000F1F0C230F1F4D2E01DC041E950E060E06C
:1003B00070E080E090E00E94A50B4EE950E060E024
:1003C00070E081E090E00E94A50B2FEF89E698E1B4
:1003D000215080409040E1F700C0000003C0D1E010
:1003E00001C0D3E08FEF8D0F833068F68D2FDF9142
:1003F000CF9108958F929F92AF92BF92CF92DF924A
:10040000EF92FF920F931F93CF93DF93CDB7DEB799
:1004100028970FB6F894DEBF0FBECDBF19821A829F
:100420001B821C821D821E821F8218860E94380A2F
:100430008BED90E00E943D0A4CEE50E060E070E0F1
:1004400081E090E00E94A50B2FEF89E698E1215012
:1004500080409040E1F700C000000E94380AD12C93
:100460000E940E09182F8D34D9F380ED810F8A3048
:1004700028F0812F8B7F8154823050F4812F90E0BF
:100480000E943B0A612FCE0101960E948F006AC034
:10049000133461F40E94380A19821A821B821C826A
:1004A0001D821E821F821886D3945CC0E980FA8068
:1004B0000B818C809D80AE80BF80C8841D3361F528
:1004C0000E94380A4DEF50E060E070E080E090E07C
:1004D0000E94A50B42E051E060E070E081E090E016
:1004E0000E94A50B182D292D3A2D4B2D5C2D64E073
:1004F00070E080E090E00E94EF0BE980FA800B81D1
:100500001C812D813E814F81588564E070E081E03F
:1005100090E00E94AF0BA3CF9701402F582D692D7B
:100520007A2D8B2D9C2DA0E00E941D12D9F441E95B
:1005300050E060E070E080E090E00E94A50B4EE9A2
:1005400050E060E070E081E090E00E94A50B2FEFAA
:1005500089E698E1215080409040E1F700C000001A
:100560000E94380A22E02D1508F07ACF28960FB69F
:10057000F894DEBF0FBECDBFDF91CF911F910F91D9
:10058000FF90EF90DF90CF90BF90AF909F908F90B3
:1005900008958F929F92AF92BF92CF92DF92EF9287
:1005A000FF920F931F93CF93DF93CDB7DEB72897BA
:1005B0000FB6F894DEBF0FBECDBF19821A821B8220
:1005C0001C821D821E821F8218860E94380A8BEDB3
:1005D00090E00E943D0A4CEE50E060E070E081E067
:1005E00090E00E94A50B2FEF8EE994E2215080400D
:1005F0009040E1F700C000000E94380AD12C0E9410
:100600000E09182F8D34D9F380ED810F8A3028F030
:10061000812F8B7F8154823050F4812F90E00E9493
:100620003B0A612FCE0101960E948F006AC01334ED
:1006300061F40E94380A19821A821B821C821D8270
:100640001E821F821886D3945CC0E980FA800B81D9
:100650008C809D80AE80BF80C8841D3361F50E9470
:10066000380A4DEF50E060E070E080E090E00E94DA
:10067000A50B47E051E060E070E081E090E00E946F
:10068000A50B182D292D3A2D4B2D5C2D64E070E023
:1006900080E090E00E94EF0BE980FA800B811C81E2
:1006A0002D813E814F81588564E070E081E090E0CB
:1006B0000E94CB0BA3CF9701402F582D692D7A2D87
:1006C0008B2D9C2DA0E00E941D12D9F441E950E031
:1006D00060E070E080E090E00E94A50B4EE950E001
:1006E00060E070E081E090E00E94A50B2FEF89E6CA
:1006F00098E1215080409040E1F700C000000E9446
:10070000380A22E02D1508F07ACF28960FB6F89413
:10071000DEBF0FBECDBFDF91CF911F910F91FF9034
:10072000EF90DF90CF90BF90AF909F908F90089503
:100730006F927F928F929F92AF92BF92CF92DF92F1
:10074000EF92FF920F931F93CF93DF93CDB7DEB756
:1007500028970FB6F894DEBF0FBECDBF19821A825C
:100760001B821C821D821E821F8218860E94380AEC
:100770008BED90E00E943D0A4CEE50E060E070E0AE
:1007800081E090E00E94A50B2FEF89E698E12150CF
:1007900080409040E1F700C000000E94380A00E06D
:1007A0000E940E09182F8D34D9F380ED810F8A3005
:1007B00028F0812F8B7F8154823050F4812F90E07C
:1007C0000E943B0A612FCE0101960E948F0060C0FB
:1007D000133461F40E94380A19821A821B821C8227
:1007E0001D821E821F8218860F5F52C069807A8028
:1007F0008B809C80AD80BE80CF80D8841D3329F54E
:100800000E94380A4DEF50E060E070E080E090E038
:100810000E94A50B4DEF50E060E070E081E090E0B9
:100820000E94A50B730184019501A60164E070E0AC
:1008300080E090E00E94EF0B9501A60164E070E07B
:1008400081E090E00E94EF0BAACF9301A401B501D3
:10085000C601A0E00E941D12D9F441E950E060E019
:1008600070E080E090E00E94A50B4EE950E060E06F
:1008700070E081E090E00E94A50B2FEF89E698E1FF
:10088000215080409040E1F700C000000E94380AEB
:10089000033008F485CF28960FB6F894DEBF0FBE5C
:1008A000CDBFDF91CF911F910F91FF90EF90DF901F
:1008B000CF90BF90AF909F908F907F906F90089552
:1008C0008F929F92AF92BF92CF92DF92EF92FF9260
:1008D0000F931F93CF93DF93CDB7DEB728970FB653
:1008E000F894DEBF0FBECDBF19821A821B821C8214
:1008F0001D821E821F8218860E94380A8BED90E0AE
:100900000E943D0A4CEE50E060E070E081E090E033
:100910000E94A50B2FEF89E698E12150804090407E
:10092000E1F700C000000E94380AD12C0E940E0995
:10093000182F8D34D9F380ED810F8A3050F4812F38
:1009400090E00E943B0A612FCE0101960E9449006F
:100950006AC0133461F40E94380A19821A821B8219
:100960001C821D821E821F821886D3945CC0E9807F
:10097000FA800B818C809D80AE80BF80C8841D333F
:1009800061F50E94380A42E051E060E070E080E0EA
:1009900090E00E94A50B4DEF50E060E070E081E038
:1009A00090E00E94A50B182D292D3A2D4B2D5C2D82
:1009B00064E070E080E090E00E94AF0BE980FA8094
:1009C0000B811C812D813E814F81588564E070E050
:1009D00081E090E00E94EF0BA8CF9701402F582DA7
:1009E000692D7A2D8B2D9C2DA0E00E941D12D9F42B
:1009F00041E950E060E070E080E090E00E94A50BEB
:100A00004EE950E060E070E081E090E00E94A50BCC
:100A10002FEF89E698E1215080409040E1F700C037
:100A200000000E94380A22E02D1508F07FCF28969A
:100A30000FB6F894DEBF0FBECDBFDF91CF911F91EF
:100A40000F91FF90EF90DF90CF90BF90AF909F906D
:100A50008F9008958F929F92AF92BF92CF92DF9224
:100A6000EF92FF920F931F93CF93DF93CDB7DEB733
:100A700028970FB6F894DEBF0FBECDBF19821A8239
:100A80001B821C821D821E821F8218860E94380AC9
:100A90008BED90E00E943D0A4CEE50E060E070E08B
:100AA00081E090E00E94A50B2FEF89E698E12150AC
:100AB00080409040E1F700C000000E94380AD12C2D
:100AC0000E940E09182F8D34D9F380ED810F8A30E2
:100AD00050F4812F90E00E943B0A612FCE010196D5
:100AE0000E9449006AC0133461F40E94380A1982D6
:100AF0001A821B821C821D821E821F821886D3943A
:100B00005CC0E980FA800B818C809D80AE80BF80C4
:100B1000C8841D3361F50E94380A42E051E060E06C
:100B200070E080E090E00E94A50B47E051E060E0BB
:100B300070E081E090E00E94A50B182D292D3A2D40
:100B40004B2D5C2D64E070E080E090E00E94AF0BE4
:100B5000E980FA800B811C812D813E814F8158856F
:100B600064E070E081E090E00E94CB0BA8CF970199
:100B7000402F582D692D7A2D8B2D9C2DA0E00E94A1
:100B80001D12D9F441E950E060E070E080E090E0AF
:100B90000E94A50B4EE950E060E070E081E090E03B
:100BA0000E94A50B2FEF89E698E1215080409040EC
:100BB000E1F700C000000E94380A22E02D1508F07D
:100BC0007FCF28960FB6F894DEBF0FBECDBFDF9162
:100BD000CF911F910F91FF90EF90DF90CF90BF903A
:100BE000AF909F908F9008956F927F928F929F9277
:100BF000AF92BF92CF92DF92EF92FF920F931F932B
:100C0000CF93DF93CDB7DEB728970FB6F894DEBF4A
:100C10000FBECDBF19821A821B821C821D821E82CA
:100C20001F8218860E94380A8BED90E00E943D0AD0
:100C30004CEE50E060E070E081E090E00E94A50B97
:100C40002FEF89E698E1215080409040E1F700C005
:100C500000000E94380A00E00E940E09182F8D340F
:100C6000D9F380ED810F8A3050F4812F90E00E94FB
:100C70003B0A612FCE0101960E94490060C01334E7
:100C800061F40E94380A19821A821B821C821D821A
:100C90001E821F8218860F5F52C069807A808B8007
:100CA0009C80AD80BE80CF80D8841D3329F50E9402
:100CB000380A42E051E060E070E080E090E00E949D
:100CC000A50B42E051E060E070E081E090E00E941E
:100CD000A50B730184019501A60164E070E080E03A
:100CE00090E00E94AF0B9501A60164E070E081E006
:100CF00090E00E94AF0BAFCF9301A401B501C601F4
:100D0000A0E00E941D12D9F441E950E060E070E0DB
:100D100080E090E00E94A50B4EE950E060E070E0BA
:100D200081E090E00E94A50B2FEF89E698E1215029
:100D300080409040E1F700C000000E94380A033074
:100D400008F48ACF28960FB6F894DEBF0FBECDBF49
:100D5000DF91CF911F910F91FF90EF90DF90CF9097
:100D6000BF90AF909F908F907F906F9008958F92DB
:100D70009F92AF92BF92CF92DF92EF92FF920F932A
:100D80001F93CF93DF93CDB7DEB728970FB6F894B4
:100D9000DEBF0FBECDBF19821A821B821C821D824C
:100DA0001E821F8218860E94380A8BED90E00E94F6
:100DB0003D0A4CEE50E060E070E081E090E00E947F
:100DC000A50B2FEF89E698E1215080409040E1F794
:100DD00000C000000E94380AD12C0E940E09182F72
:100DE0008D34D9F380ED810F823050F4812F90E063
:100DF0000E943B0A612FCE0101960E9412016AC037
:100E0000133461F40E94380A19821A821B821C82F0
:100E10001D821E821F821886D3945CC0E980FA80EE
:100E20000B818C809D80AE80BF80C8841D3361F5AE
:100E30000E94380A47E051E060E070E080E090E016
:100E40000E94A50B4DEF50E060E070E081E090E083
:100E50000E94A50B182D292D3A2D4B2D5C2D64E0F9
:100E600070E080E090E00E94CB0BE980FA800B817B
:100E70001C812D813E814F81588564E070E081E0C6
:100E800090E00E94EF0BA8CF9701402F582D692DBD
:100E90007A2D8B2D9C2DA0E00E941D12D9F441E9E2
:100EA00050E060E070E080E090E00E94A50B4EE929
:100EB00050E060E070E081E090E00E94A50B2FEF31
:100EC00089E698E1215080409040E1F700C00000A1
:100ED0000E94380A22E02D1508F07FCF28960FB621
:100EE000F894DEBF0FBECDBFDF91CF911F910F9160
:100EF000FF90EF90DF90CF90BF90AF909F908F903A
:100F000008958F929F92AF92BF92CF92DF92EF920D
:100F1000FF920F931F93CF93DF93CDB7DEB7289740
:100F20000FB6F894DEBF0FBECDBF19821A821B82A6
:100F30001C821D821E821F8218860E94380A8BED39
:100F400090E00E943D0A4CEE50E060E070E081E0ED
:100F500090E00E94A50B2FEF89E698E12150804098
:100F60009040E1F700C000000E94380AD12C0E9496
:100F70000E09182F8D34D9F380ED810F823050F493
:100F8000812F90E00E943B0A612FCE0101960E94C2
:100F900012016AC0133461F40E94380A19821A825D
:100FA0001B821C821D821E821F821886D3945CC005
:100FB000E980FA800B818C809D80AE80BF80C884E0
:100FC0001D3361F50E94380A47E051E060E070E0AF
:100FD00080E090E00E94A50B42E051E060E070E00C
:100FE00081E090E00E94A50B182D292D3A2D4B2D64
:100FF0005C2D64E070E080E090E00E94CB0BE98023
:10100000FA800B811C812D813E814F81588564E0DF
:1010100070E081E090E00E94AF0BA8CF9701402FD5
:10102000582D692D7A2D8B2D9C2DA0E00E941D122C
:10103000D9F441E950E060E070E080E090E00E9487
:10104000A50B4EE950E060E070E081E090E00E9486
:10105000A50B2FEF89E698E1215080409040E1F701
:1010600000C000000E94380A22E02D1508F07FCF52
:1010700028960FB6F894DEBF0FBECDBFDF91CF919B
:101080001F910F91FF90EF90DF90CF90BF90AF90A6
:101090009F908F9008956F927F928F929F92AF92C0
:1010A000BF92CF92DF92EF92FF920F931F93CF9355
:1010B000DF93CDB7DEB728970FB6F894DEBF0FBE2B
:1010C000CDBF19821A821B821C821D821E821F8242
:1010D00018860E94380A8BED90E00E943D0A4CEE83
:1010E00050E060E070E081E090E00E94A50B2FEFFF
:1010F00089E698E1215080409040E1F700C000006F
:101100000E94380A00E00E940E09182F8D34D9F38E
:1011100080ED810F823050F4812F90E00E943B0AD5
:10112000612FCE0101960E94120160C0133461F458
:101130000E94380A19821A821B821C821D821E821A
:101140001F8218860F5F52C069807A808B809C80D6
:10115000AD80BE80CF80D8841D3329F50E94380A27
:1011600047E051E060E070E080E090E00E94A50B75
:1011700047E051E060E070E081E090E00E94A50B64
:10118000730184019501A60164E070E080E090E0C5
:101190000E94CB0B9501A60164E070E081E090E035
:1011A0000E94CB0BAFCF9301A401B501C601A0E013
:1011B0000E941D12D9F441E950E060E070E080E047
:1011C00090E00E94A50B4EE950E060E070E081E005
:1011D00090E00E94A50B2FEF89E698E12150804016
:1011E0009040E1F700C000000E94380A033008F484
:1011F0008ACF28960FB6F894DEBF0FBECDBFDF9121
:10120000CF911F910F91FF90EF90DF90CF90BF9003
:10121000AF909F908F907F906F900895DF92EF92A4
:10122000FF920F931F93CF93DF9361E08CE00E94B6
:10123000AF0C61E08DE00E94AF0C61E08EE00E9497
:10124000AF0C61E08FE00E94AF0C9CE0E92E91E0D2
:10125000F92ECCE0DDE460E08C2F0E94AF0C00E0C2
:1012600010E08AE1D82ED00E8D2D0E94300D811114
:1012700009C0F701E00FF11FD0818D2D0E94300DC4
:101280008823D9F30F5F1F4F0430110551F761E038
:101290008C2F0E94AF0CCF5F84E0E80EF11CC031B0
:1012A000D1F68D2FDF91CF911F910F91FF90EF908D
:1012B000DF900895CF93C82F60E081E00E94AF0CCB
:1012C0006C2F661F6627661F86E00E94AF0CC6FB68
:1012D000662760F985E00E94AF0CC5FB662760F9C0
:1012E00084E00E94AF0CC4FB662760F983E00E9493
:1012F000AF0C61E082E00E94AF0C8FEC97E00197A9
:10130000F1F700C0000060E082E00E94AF0C8FECBB
:1013100097E00197F1F700C00000C3FB662760F972
:1013200086E00E94AF0CC2FB662760F985E00E9450
:10133000AF0CC1FB662760F984E00E94AF0C6C2FF4
:10134000617083E00E94AF0C61E082E00E94AF0C0C
:101350008FEC97E00197F1F700C0000060E082E0B9
:101360000E94AF0C8FEC97E00197F1F700C00000EE
:10137000CF910895CF93C82F61E081E00E94AF0C18
:101380006C2F661F6627661F86E00E94AF0CC6FBA7
:10139000662760F985E00E94AF0CC5FB662760F9FF
:1013A00084E00E94AF0CC4FB662760F983E00E94D2
:1013B000AF0C61E082E00E94AF0C8FEC97E00197E8
:1013C000F1F700C0000060E082E00E94AF0C8FECFB
:1013D00097E00197F1F700C00000C3FB662760F9B2
:1013E00086E00E94AF0CC2FB662760F985E00E9490
:1013F000AF0CC1FB662760F984E00E94AF0C6C2F34
:10140000617083E00E94AF0C61E082E00E94AF0C4B
:101410008FEC97E00197F1F700C0000060E082E0F8
:101420000E94AF0C8FEC97E00197F1F700C000002D
:10143000CF9108952FE788E391E0215080409040BC
:10144000E1F700C0000082E00E945A0988E20E9491
:101450005A098CE00E945A0981E00E945A098FECD7
:1014600097E00197F1F700C0000086E00C945A095C
:1014700081E00C945A090C94BA090F931F93CF93EF
:101480008C01C0E0F801EC0FF11D8081882321F070
:101490000E94BA09CF5FF6CFCF911F910F910895A7
:1014A0002F923F924F925F926F927F928F929F9274
:1014B000AF92BF92CF92DF92EF92FF920F931F9362
:1014C000CF93DF93CDB7DEB767970FB6F894DEBF43
:1014D0000FBECDBF29013A014B011C01A0E00E94C3
:1014E0001D12D9F480E367960FB6F894DEBF0FBEE5
:1014F000CDBFDF91CF911F910F91FF90EF90DF90C3
:10150000CF90BF90AF909F908F907F906F905F90A3
:101510004F903F902F900C94BA09A0E00E941D12AA
:101520004CF40E948A1129013A014B011C018DE201
:101530000E94BA091D8A81E090E08C0F9D1FED8901
:101540008E0F911D9F8B8E8B8AE0A82EB12CC12C03
:10155000D12CE12CF12C00E010E09201A301B401A8
:10156000C1010E94FA10205DEE89FF89208392015B
:10157000A301B401C1010E94FC1029013A014B01F1
:101580001C01ED89EF5FA0E00E941D1211F0ED8BB0
:10159000D2CF9D8897FC0DC0E1E0F0E0EC0FFD1F7D
:1015A000E90DF11D97FCFA9580810E94BA099A9481
:1015B000F1CF67960FB6F894DEBF0FBECDBFDF91B7
:1015C000CF911F910F91FF90EF90DF90CF90BF9040
:1015D000AF909F908F907F906F905F904F903F90D3
:1015E0002F9008958F929F92AF92BF92CF92DF92E9
:1015F000EF92FF920F931F93CF93DF93F22EE32E80
:10160000D42EC52EB62EA72E982E892ECFE3D0E04D
:1016100010E02F2D3E2D4D2D5C2D6B2D7A2D892D1B
:10162000982D0C2F0E94EC11217030E040E050E02A
:1016300060E070E080E090E0A0E00E941D1229F0E0
:1016400081E30E94BA0911E007C0113021F480E360
:101650000E94BA0901C010E02197D8F6DF91CF911E
:101660001F910F91FF90EF90DF90CF90BF90AF90C0
:101670009F908F9008957F928F929F92AF92BF928A
:10168000CF92DF92EF92FF920F931F93CF93DF934E
:10169000CDB7DEB760970FB6F894DEBF0FBECDBFF3
:1016A000F22EE32ED42EC52EB62EA72E982E892EDE
:1016B00080E1E0E6F0E0DE01119601900D928A955E
:1016C000E1F71CE3772473942F2D3E2D4D2D5C2DD7
:1016D0006B2D7A2D892D982D012F0E94EC112F70E2
:1016E00011F07092860180918601813049F4E1E029
:1016F000F0E0EC0FFD1FE20FF11D80810E94BA099E
:1017000014501C3F09F71092860160960FB6F894AA
:10171000DEBF0FBECDBFDF91CF911F910F91FF9024
:10172000EF90DF90CF90BF90AF909F908F907F9081
:101730000895811103C0862F806804C0813021F490
:10174000862F806C0C945A090895CF93DF93EA0199
:101750000E94990BCE01DF91CF910C943D0ACF925C
:10176000DF92EF92FF920F931F93CF93DF93690164
:10177000D42FC52F0E94990B9701A801B6018D2F78
:101780009C2FDF91CF911F910F91FF90EF90DF90F1
:10179000CF900C94500ACF92DF92EF92FF920F936A
:1017A0001F93CF93DF936901D42FC52F0E94990B0C
:1017B0009701A801B6018D2F9C2FDF91CF911F912A
:1017C0000F91FF90EF90DF90CF900C94F20ACF939F
:1017D000C42F0E94990B8C2FCF910C94BA09CF92F1
:1017E000DF92EF92FF920F931F93CF93DF936901E4
:1017F000D42FC52F0E94990B9701A801B6018D2FF8
:101800009C2FDF91CF911F910F91FF90EF90DF9070
:10181000CF900C943B0B0E944D0D0E941A0A4CE194
:1018200051E060E080E00E94A50B49E251E060E0F9
:1018300081E00E94A50B2FEF83ED90E321508040C3
:101840009040E1F700C000000E94380A46E351E0F2
:1018500060E080E00E94A50B46E451E060E081E09A
:101860000E94A50B2FEF8DE399E42150804090401A
:10187000E1F700C000000E94380A47E551E060E04F
:1018800080E00E94A50B2FEF8EE994E2215080406A
:101890009040E1F700C000000E94380A0E94380121
:1018A000C82F0E94A101C13079F4823019F40E943E
:1018B000FA01F4CF833019F40E94C902EFCF8130CE
:1018C00069F70E949803EACFC23079F4813019F4A5
:1018D0000E946004E3CF833019F40E942A05DECF12
:1018E0008230E1F60E94F405D9CFC330B9F68130D9
:1018F00019F40E94B706D2CF823019F40E948107F2
:10190000CDCF833059F60E944B08C8CF1F920F925B
:101910000FB60F9211242F933F934F935F936F93C2
:101920007F938F939F93AF93BF93EF93FF93E09138
:101930008701F0918801309709F00995FF91EF91A7
:10194000BF91AF919F918F917F916F915F914F91D7
:101950003F912F910F900FBE0F901F901895982FC9
:1019600096959695969587706130C1F5913091F076
:1019700028F09230D9F0933029F108954BB321E04B
:1019800030E0B90102C0660F771F8A95E2F7CB01FC
:10199000842B3AC048B321E030E0B90102C0660FA1
:1019A000771F8A95E2F7CB01842B3CC045B321E039
:1019B00030E0B90102C0660F771F8A95E2F7CB01CC
:1019C000842B3EC042B321E030E0B90102C0660F73
:1019D000771F8A95E2F7CB01842B40C061113FC08D
:1019E0009130A1F028F09230F9F0933059F1089538
:1019F0004BB321E030E0B90102C0660F771F8A9532
:101A0000E2F7CB01809584238BBB089548B321E096
:101A100030E0B90102C0660F771F8A95E2F7CB016B
:101A20008095842388BB089545B321E030E0B90157
:101A300002C0660F771F8A95E2F7CB018095842359
:101A400085BB089542B321E030E0B90102C0660FC2
:101A5000771F8A95E2F7CB018095842382BB089596
:101A6000282F2770869586958695813049F030F02D
:101A7000823041F0833079F480B305C089B303C06C
:101A800086B301C083B390E002C0959587952A95EF
:101A9000E2F78170089580E00895E6E6F1E040E025
:101AA00081E090E05191342F369536953695242F6C
:101AB0002770513009F443C020F0523009F482C03D
:101AC000C5C0323001F1333061F1313071F05AB3B9
:101AD000BC0102C0660F771F2A95E2F79B01352FE4
:101AE000322B3ABB3BB320953DC057B3BC0102C07B
:101AF000660F771F2A95E2F79B01352F322B37BBF4
:101B000038B320953EC054B3BC0102C0660F771FA6
:101B10002A95E2F79B01352F322B34BB35B3209544
:101B20003FC051B3BC0102C0660F771F2A95E2F790
:101B30009B01352F322B31BB32B3209541C032305F
:101B400011F1333081F1313079F05AB3BC0102C068
:101B5000660F771F2A95E2F79B012095352F3223D8
:101B60003ABB3BB3232342C057B3BC0102C0660F4C
:101B7000771F2A95E2F79B012095352F322337BB3B
:101B800038B3232343C054B3BC0102C0660F771F90
:101B90002A95E2F79B012095352F322334BB35B3CC
:101BA000232325BB53C051B3BC0102C0660F771F6E
:101BB0002A95E2F79B012095352F322331BB32B3B2
:101BC000232343C0323021F1333089F1313081F0A9
:101BD0005AB3BC0102C0660F771F2A95E2F79B013A
:101BE000362F309535233ABB3BB3232B2BBB2EC06E
:101BF00057B3BC0102C0660F771F2A95E2F79B011D
:101C0000362F3095352337BB38B3232B28BB1EC066
:101C100054B3BC0102C0660F771F2A95E2F79B01FF
:101C2000362F3095352334BB35B3232BBACF51B380
:101C3000BC0102C0660F771F2A95E2F79B01362F81
:101C40003095352331BB32B3232B22BB4F5F40325B
:101C500009F028CF08951F920F920FB60F9211240A
:101C60002F933F934F935F936F937F938F939F93A4
:101C7000AF93BF93EF93FF93E0918D01F0918E01AD
:101C8000309709F00995FF91EF91BF91AF919F9126
:101C90008F917F916F915F914F913F912F910F9015
:101CA0000FBE0F901F9018951F920F920FB60F92B4
:101CB00011242F933F934F935F936F937F938F9351
:101CC0009F93AF93BF93EF93FF93E0918B01F091BC
:101CD0008C01309709F00995FF91EF91BF91AF9179
:101CE0009F918F917F916F915F914F913F912F9134
:101CF0000F900FBE0F901F9018951F920F920FB666
:101D00000F9211242F933F934F935F936F937F9381
:101D10008F939F93AF93BF93EF93FF93E0918901CC
:101D2000F0918A01309709F00995FF91EF91BF91E9
:101D3000AF919F918F917F916F915F914F913F9163
:101D40002F910F900FBE0F901F9018951F920F921A
:101D50000FB60F9211242F933F934F935F936F937E
:101D60007F938F939F93AF93BF93EF93FF93E091F4
:101D70008F01F0919001309709F00995FF91EF9153
:101D8000BF91AF919F918F917F916F915F914F9193
:101D90003F912F910F900FBE0F901F9018951F929B
:101DA0000F920FB60F9211242F933F934F935F938F
:101DB0006F937F938F939F93AF93BF93EF93FF9313
:101DC000E0919F01F091A001309709F00995FF91F2
:101DD000EF91BF91AF919F918F917F916F915F91A3
:101DE0004F913F912F910F900FBE0F901F9018951C
:101DF0001F920F920FB60F9211242F933F934F9380
:101E00005F936F937F938F939F93AF93BF93EF9362
:101E1000FF93E0919D01F0919E01309709F00995A3
:101E2000FF91EF91BF91AF919F918F917F916F91B2
:101E30005F914F913F912F910F900FBE0F901F9088
:101E400018951F920F920FB60F9211242F933F9364
:101E50004F935F936F937F938F939F93AF93BF93B2
:101E6000EF93FF93E0919B01F0919C01309709F073
:101E70000995FF91EF91BF91AF919F918F917F91C4
:101E80006F915F914F913F912F910F900FBE0F90E7
:101E90001F9018951F920F920FB60F9211242F9337
:101EA0003F934F935F936F937F938F939F93AF93E2
:101EB000BF93EF93FF93E0919901F0919A013097CE
:101EC00009F00995FF91EF91BF91AF919F918F918B
:101ED0007F916F915F914F913F912F910F900FBE26
:101EE0000F901F9018951F920F920FB60F9211240A
:101EF0002F933F934F935F936F937F938F939F9312
:101F0000AF93BF93EF93FF93E0919701F091980106
:101F1000309709F00995FF91EF91BF91AF919F9193
:101F20008F917F916F915F914F913F912F910F9082
:101F30000FBE0F901F9018951F920F920FB60F9221
:101F400011242F933F934F935F936F937F938F93BE
:101F50009F93AF93BF93EF93FF93E0919501F0911F
:101F60009601309709F00995FF91EF91BF91AF91DC
:101F70009F918F917F916F915F914F913F912F91A1
:101F80000F900FBE0F901F9018951F920F920FB6D3
:101F90000F9211242F933F934F935F936F937F93EF
:101FA0008F939F93AF93BF93EF93FF93E091930130
:101FB000F0919401309709F00995FF91EF91BF914D
:101FC000AF919F918F917F916F915F914F913F91D1
:101FD0002F910F900FBE0F901F9018951F920F9288
:101FE0000FB60F9211242F933F934F935F936F93EC
:101FF0007F938F939F93AF93BF93EF93FF93E09162
:102000009101F0919201309709F00995FF91EF91BC
:10201000BF91AF919F918F917F916F915F914F9100
:102020003F912F910F900FBE0F901F9018951F9208
:102030000F920FB60F9211242F933F934F935F93FC
:102040006F937F938F939F93AF93BF93EF93FF9380
:10205000E091A501F091A601309709F00995FF9153
:10206000EF91BF91AF919F918F917F916F915F9110
:102070004F913F912F910F900FBE0F901F90189589
:102080001F920F920FB60F9211242F933F934F93ED
:102090005F936F937F938F939F93AF93BF93EF93D0
:1020A000FF93E091A301F091A401309709F0099505
:1020B000FF91EF91BF91AF919F918F917F916F9120
:1020C0005F914F913F912F910F900FBE0F901F90F6
:1020D00018951F920F920FB60F9211242F933F93D2
:1020E0004F935F936F937F938F939F93AF93BF9320
:1020F000EF93FF93E091A101F091A201309709F0D5
:102100000995FF91EF91BF91AF919F918F917F9131
:102110006F915F914F913F912F910F900FBE0F9054
:102120001F901895A29FB001B39FC001A39F700D8F
:10213000811D1124911DB29F700D811D1124911DCF
:102140000895DF93CF931F930F939A9DF02D219FB6
:10215000F00D8B9DF00D8A9DE02DF10D039FF00D8C
:10216000029FE00DF11D4E9DE00DF11D5E9DF00DF5
:102170004F9DF00D7F936F93BF92AF925F934F93FC
:10218000D5010E9492108B01AC01D7010E949210E0
:10219000EB01E80FF91FD6010E94F1102F913F913A
:1021A000D6010E949210C60FD71FE81FF91FAF91EA
:1021B000BF910E94F1102F913F910E949210C60F83
:1021C000D71FE81FF91FD6010E949210E60FF71FD4
:1021D0009801BE01CF0111240F911F91CF91DF9182
:1021E00008950E949210460F571FC81FD91F08F468
:1021F00031960895689401C0E894F92FF12B12F0FC
:102200000C942E11A0E0B0E0E8E0F1E10C94A011F4
:10221000092E059422F40E948A11112392F4F0E809
:102220000F26FFEFE094F09400951095B094C094C1
:10223000D094A194BF0ACF0ADF0AEF0AFF0A0F0B5E
:102240001F0B0E94391107FC0E948A11CDB7DEB71F
:10225000ECE00C94BC11689401C0E8948F929F92BA
:10226000CF93DF930E943911DF91CF919F908F9090
:10227000089588249924F401E401B0E49F93AA27E7
:102280009A158B049C04ED05FE05CF05D007A10728
:1022900098F4AD2FDC2FCF2FFE2FE92D982C892E0F
:1022A000982F872F762F652F542F432F322F2227D9
:1022B000B85031F7BF9127C01B2EBF91BB27220F0B
:1022C000331F441F551F661F771F881F991F881CC7
:1022D000991CEE1FFF1FCC1FDD1FAA1FBB1F8A14F6
:1022E0009B04EC05FD05CE05DF05A007B10748F00E
:1022F0008A189B08EC09FD09CE09DF09A00BB10B78
:1023000021601A94E1F62EF49401AF01BE01CD01D3
:10231000000C089560957095809590953095409546
:10232000509521953F4F4F4F5F4F6F4F7F4F8F4FCE
:102330009F4F08952F923F924F925F926F927F929C
:102340008F929F92AF92BF92CF92DF92EF92FF92C5
:102350000F931F93CF93DF93CDB7DEB7CA1BDB0B71
:102360000FB6F894DEBF0FBECDBF09942A88398816
:1023700048885F846E847D848C849B84AA84B9841D
:10238000C884DF80EE80FD800C811B81AA81B98129
:10239000CE0FD11D0FB6F894DEBF0FBECDBFED013D
:1023A00008950F93083090F0982F872F762F652F80
:1023B000542F432F322F22270850F4CF220F331FE0
:1023C000441F551F661F771F881F991F0A95B2F774
:1023D0000F91089597FB10F8169400080F9308309A
:1023E00098F00850232F342F452F562F672F782F22
:1023F000892F902DF4CF05949795879577956795BC
:1024000057954795379527950A95AAF70F910895FF
:102410002A0D3B1D4C1D5D1D6E1D7F1D801F911FD4
:1024200008950024A7FD00942A0F301D401D501D63
:10243000601D701D801D901D08950024A7FD00944F
:102440002A17300540055005600570058005900588
:062450000895F894FFCF8F
:1024560030313233343536373839414243444546D4
:10246600436F6E766572742046726F6D203A003146
:102476002D48657820322D44656320332D42696EE0
:102486000057726F6E672043686F69636500547208
:102496007920416761696E00436F6E2046726F6DE9
:1024A6002048657820746F3A00436F6E2046726F3D
:1024B6006D2044656320746F3A00436F6E20467248
:1024C6006F6D2042696E20746F3A00546F20476F1B
:1024D60020546F2053656C4D656E750050726573A0
:1024E600203374696D6573206F6E204300486578EC
:1024F6003A004465633A0042696E3A003738392F2C
:102506003435362A3132332D43303D2B4D79204E2A
:10251600616D65204973203A00416264656C2D72D5
:1025260061686D616E0057656C636F6D6520546FF1
:10253600204D79203A00436F6E766572746572504D
:10254600726F6A656374004C6574277320537461F7
:102556007274203A2900000000000000000000000C
:102566000000000000000000000000000000000065
:0625760002020202000057
:00000001FF
